{
  "_format": "hh-sol-artifact-1",
  "contractName": "SupplyChain",
  "sourceName": "contracts/Contract.sol",
  "abi": [
    {
      "inputs": [
        {
          "internalType": "string",
          "name": "_name",
          "type": "string"
        },
        {
          "internalType": "string",
          "name": "_date",
          "type": "string"
        },
        {
          "internalType": "address",
          "name": "origin",
          "type": "address"
        },
        {
          "internalType": "address",
          "name": "destination",
          "type": "address"
        }
      ],
      "name": "addProduct",
      "outputs": [],
      "stateMutability": "nonpayable",
      "type": "function"
    },
    {
      "inputs": [],
      "name": "currentProdID",
      "outputs": [
        {
          "internalType": "string",
          "name": "",
          "type": "string"
        }
      ],
      "stateMutability": "view",
      "type": "function"
    },
    {
      "inputs": [],
      "name": "getAllHubs",
      "outputs": [
        {
          "components": [
            {
              "internalType": "string",
              "name": "hubName",
              "type": "string"
            },
            {
              "internalType": "address",
              "name": "company",
              "type": "address"
            }
          ],
          "internalType": "struct SupplyChain.Hub[]",
          "name": "",
          "type": "tuple[]"
        }
      ],
      "stateMutability": "view",
      "type": "function"
    },
    {
      "inputs": [],
      "name": "getCompanyProducts",
      "outputs": [
        {
          "internalType": "string[]",
          "name": "",
          "type": "string[]"
        }
      ],
      "stateMutability": "view",
      "type": "function"
    },
    {
      "inputs": [
        {
          "internalType": "string",
          "name": "productID",
          "type": "string"
        }
      ],
      "name": "getCurrentStatus",
      "outputs": [
        {
          "components": [
            {
              "internalType": "string",
              "name": "timestamp",
              "type": "string"
            },
            {
              "internalType": "address",
              "name": "hub",
              "type": "address"
            },
            {
              "internalType": "string",
              "name": "hubName",
              "type": "string"
            }
          ],
          "internalType": "struct SupplyChain.Status[]",
          "name": "",
          "type": "tuple[]"
        }
      ],
      "stateMutability": "view",
      "type": "function"
    },
    {
      "inputs": [],
      "name": "getProdID",
      "outputs": [
        {
          "internalType": "string",
          "name": "",
          "type": "string"
        }
      ],
      "stateMutability": "view",
      "type": "function"
    },
    {
      "inputs": [
        {
          "internalType": "address",
          "name": "theCompany",
          "type": "address"
        }
      ],
      "name": "isCompany",
      "outputs": [
        {
          "internalType": "bool",
          "name": "answer",
          "type": "bool"
        }
      ],
      "stateMutability": "view",
      "type": "function"
    },
    {
      "inputs": [
        {
          "internalType": "address",
          "name": "theHub",
          "type": "address"
        },
        {
          "internalType": "address",
          "name": "theCompany",
          "type": "address"
        }
      ],
      "name": "isHub",
      "outputs": [
        {
          "internalType": "bool",
          "name": "answer",
          "type": "bool"
        }
      ],
      "stateMutability": "view",
      "type": "function"
    },
    {
      "inputs": [],
      "name": "login",
      "outputs": [
        {
          "internalType": "uint256",
          "name": "role",
          "type": "uint256"
        }
      ],
      "stateMutability": "view",
      "type": "function"
    },
    {
      "inputs": [
        {
          "internalType": "string",
          "name": "_name",
          "type": "string"
        }
      ],
      "name": "registerCompany",
      "outputs": [],
      "stateMutability": "nonpayable",
      "type": "function"
    },
    {
      "inputs": [
        {
          "internalType": "string",
          "name": "_name",
          "type": "string"
        },
        {
          "internalType": "address",
          "name": "theHub",
          "type": "address"
        }
      ],
      "name": "registerHub",
      "outputs": [],
      "stateMutability": "nonpayable",
      "type": "function"
    },
    {
      "inputs": [
        {
          "internalType": "string",
          "name": "_productID",
          "type": "string"
        },
        {
          "internalType": "string",
          "name": "_time",
          "type": "string"
        }
      ],
      "name": "updateProductStatus",
      "outputs": [],
      "stateMutability": "nonpayable",
      "type": "function"
    }
  ],
  "bytecode": "0x608060405234801561001057600080fd5b5061345d806100206000396000f3fe608060405234801561001057600080fd5b50600436106100b35760003560e01c806383ec8a5a1161007157806383ec8a5a14610178578063a0406ce2146101a8578063b34e97e8146101d8578063b954d092146101f6578063ea2fef2014610212578063eba2a71114610230576100b3565b8062544194146100b857806305987147146100d45780630b78a52b146100f057806311d49fe91461010e57806326a9ceb81461012c5780637be1bb1b14610148575b600080fd5b6100d260048036038101906100cd9190612140565b61024e565b005b6100ee60048036038101906100e99190612189565b61037a565b005b6100f86107e3565b6040516101059190612342565b60405180910390f35b610116610a79565b60405161012391906124a4565b60405180910390f35b610146600480360381019061014191906124f2565b610d16565b005b610162600480360381019061015d9190612140565b611150565b60405161016f91906126aa565b60405180910390f35b610192600480360381019061018d91906126cc565b611484565b60405161019f9190612727565b60405180910390f35b6101c260048036038101906101bd9190612742565b61151f565b6040516101cf9190612727565b60405180910390f35b6101e0611579565b6040516101ed9190612788565b60405180910390f35b610210600480360381019061020b91906127a3565b61163f565b005b61021a6119f4565b6040516102279190612849565b60405180910390f35b610238611a86565b6040516102459190612849565b60405180910390f35b60008060003373ffffffffffffffffffffffffffffffffffffffff1673ffffffffffffffffffffffffffffffffffffffff168152602001908152602001600020600001805461029c9061289a565b9050146102de576040517f08c379a00000000000000000000000000000000000000000000000000000000081526004016102d590612917565b60405180910390fd5b6000815111610322576040517f08c379a000000000000000000000000000000000000000000000000000000000815260040161031990612983565b60405180910390fd5b60008060003373ffffffffffffffffffffffffffffffffffffffff1673ffffffffffffffffffffffffffffffffffffffff1681526020019081526020016000209050818160000190816103759190612b4f565b505050565b6000600160003373ffffffffffffffffffffffffffffffffffffffff1673ffffffffffffffffffffffffffffffffffffffff16815260200190815260200160002060000180546103c99061289a565b90500361040b576040517f08c379a000000000000000000000000000000000000000000000000000000000815260040161040290612c6d565b60405180910390fd5b6000806000600160003373ffffffffffffffffffffffffffffffffffffffff1673ffffffffffffffffffffffffffffffffffffffff16815260200190815260200160002060010160009054906101000a900473ffffffffffffffffffffffffffffffffffffffff1673ffffffffffffffffffffffffffffffffffffffff1673ffffffffffffffffffffffffffffffffffffffff168152602001908152602001600020600301836040516104be9190612cc9565b908152602001604051809103902090508060010160009054906101000a900473ffffffffffffffffffffffffffffffffffffffff1673ffffffffffffffffffffffffffffffffffffffff16600160003373ffffffffffffffffffffffffffffffffffffffff1673ffffffffffffffffffffffffffffffffffffffff16815260200190815260200160002060010160009054906101000a900473ffffffffffffffffffffffffffffffffffffffff1673ffffffffffffffffffffffffffffffffffffffff16146105c2576040517f08c379a00000000000000000000000000000000000000000000000000000000081526004016105b990612d52565b60405180910390fd5b8060050160009054906101000a900473ffffffffffffffffffffffffffffffffffffffff1673ffffffffffffffffffffffffffffffffffffffff163373ffffffffffffffffffffffffffffffffffffffff16036106345780600701600081548092919061062e90612da1565b91905055505b600060405180606001604052808481526020013373ffffffffffffffffffffffffffffffffffffffff168152602001600160003373ffffffffffffffffffffffffffffffffffffffff1673ffffffffffffffffffffffffffffffffffffffff16815260200190815260200160002060000180546106b09061289a565b80601f01602080910402602001604051908101604052809291908181526020018280546106dc9061289a565b80156107295780601f106106fe57610100808354040283529160200191610729565b820191906000526020600020905b81548152906001019060200180831161070c57829003601f168201915b50505050508152509050808260060160008460070154815260200190815260200160002060008201518160000190816107629190612b4f565b5060208201518160010160006101000a81548173ffffffffffffffffffffffffffffffffffffffff021916908373ffffffffffffffffffffffffffffffffffffffff16021790555060408201518160020190816107bf9190612b4f565b509050508160070160008154809291906107d890612da1565b919050555050505050565b606060008060003373ffffffffffffffffffffffffffffffffffffffff1673ffffffffffffffffffffffffffffffffffffffff16815260200190815260200160002060000180546108339061289a565b905003610875576040517f08c379a000000000000000000000000000000000000000000000000000000000815260040161086c90612e5b565b60405180910390fd5b60008060003373ffffffffffffffffffffffffffffffffffffffff1673ffffffffffffffffffffffffffffffffffffffff168152602001908152602001600020905060008160040180549050905060008167ffffffffffffffff8111156108df576108de612015565b5b60405190808252806020026020018201604052801561091257816020015b60608152602001906001900390816108fd5790505b5090506000821115610a705760005b82811015610a6e57600084600401828154811061094157610940612e7b565b5b9060005260206000200180546109569061289a565b80601f01602080910402602001604051908101604052809291908181526020018280546109829061289a565b80156109cf5780601f106109a4576101008083540402835291602001916109cf565b820191906000526020600020905b8154815290600101906020018083116109b257829003601f168201915b5050505050905084600301816040516109e89190612cc9565b90815260200160405180910390206000018560030182604051610a0b9190612cc9565b9081526020016040518091039020600201604051602001610a2d929190612f79565b604051602081830303815290604052838381518110610a4f57610a4e612e7b565b5b6020026020010181905250508080610a6690612da1565b915050610921565b505b80935050505090565b606060008060003373ffffffffffffffffffffffffffffffffffffffff1673ffffffffffffffffffffffffffffffffffffffff16815260200190815260200160002060020180549050905060008167ffffffffffffffff811115610ae057610adf612015565b5b604051908082528060200260200182016040528015610b1957816020015b610b06611f7f565b815260200190600190039081610afe5790505b50905060005b82811015610d0d5760008060003373ffffffffffffffffffffffffffffffffffffffff1673ffffffffffffffffffffffffffffffffffffffff1681526020019081526020016000206002018281548110610b7c57610b7b612e7b565b5b9060005260206000200160009054906101000a900473ffffffffffffffffffffffffffffffffffffffff169050600160008273ffffffffffffffffffffffffffffffffffffffff1673ffffffffffffffffffffffffffffffffffffffff168152602001908152602001600020604051806040016040529081600082018054610c039061289a565b80601f0160208091040260200160405190810160405280929190818152602001828054610c2f9061289a565b8015610c7c5780601f10610c5157610100808354040283529160200191610c7c565b820191906000526020600020905b815481529060010190602001808311610c5f57829003601f168201915b505050505081526020016001820160009054906101000a900473ffffffffffffffffffffffffffffffffffffffff1673ffffffffffffffffffffffffffffffffffffffff1673ffffffffffffffffffffffffffffffffffffffff1681525050838381518110610cee57610ced612e7b565b5b6020026020010181905250508080610d0590612da1565b915050610b1f565b50809250505090565b60008060003373ffffffffffffffffffffffffffffffffffffffff1673ffffffffffffffffffffffffffffffffffffffff1681526020019081526020016000206000018054610d649061289a565b905003610da6576040517f08c379a0000000000000000000000000000000000000000000000000000000008152600401610d9d9061301a565b60405180910390fd5b6000600160008473ffffffffffffffffffffffffffffffffffffffff1673ffffffffffffffffffffffffffffffffffffffff1681526020019081526020016000206000018054610df59061289a565b905003610e37576040517f08c379a0000000000000000000000000000000000000000000000000000000008152600401610e2e90613086565b60405180910390fd5b6000600160008373ffffffffffffffffffffffffffffffffffffffff1673ffffffffffffffffffffffffffffffffffffffff1681526020019081526020016000206000018054610e869061289a565b905003610ec8576040517f08c379a0000000000000000000000000000000000000000000000000000000008152600401610ebf906130f2565b60405180910390fd5b6000610ed333611b14565b905060008060003373ffffffffffffffffffffffffffffffffffffffff1673ffffffffffffffffffffffffffffffffffffffff168152602001908152602001600020600401805490509050600082610f36600184610f319190613112565b611e1f565b604051602001610f47929190613146565b604051602081830303815290604052905060008060003373ffffffffffffffffffffffffffffffffffffffff1673ffffffffffffffffffffffffffffffffffffffff16815260200190815260200160002060030182604051610fa99190612cc9565b9081526020016040518091039020905081816000019081610fca9190612b4f565b50338160010160006101000a81548173ffffffffffffffffffffffffffffffffffffffff021916908373ffffffffffffffffffffffffffffffffffffffff1602179055508781600201908161101f9190612b4f565b50868160030190816110319190612b4f565b50858160040160006101000a81548173ffffffffffffffffffffffffffffffffffffffff021916908373ffffffffffffffffffffffffffffffffffffffff160217905550848160050160006101000a81548173ffffffffffffffffffffffffffffffffffffffff021916908373ffffffffffffffffffffffffffffffffffffffff160217905550600081600701819055506000803373ffffffffffffffffffffffffffffffffffffffff1673ffffffffffffffffffffffffffffffffffffffff168152602001908152602001600020600401829080600181540180825580915050600190039060005260206000200160009091909190915090816111359190612b4f565b5081600290816111459190612b4f565b505050505050505050565b606060008060003373ffffffffffffffffffffffffffffffffffffffff1673ffffffffffffffffffffffffffffffffffffffff16815260200190815260200160002060000180546111a09061289a565b9050036111e2576040517f08c379a00000000000000000000000000000000000000000000000000000000081526004016111d9906131dc565b60405180910390fd5b60008060003373ffffffffffffffffffffffffffffffffffffffff1673ffffffffffffffffffffffffffffffffffffffff168152602001908152602001600020600301836040516112339190612cc9565b908152602001604051809103902090506000816007015467ffffffffffffffff81111561126357611262612015565b5b60405190808252806020026020018201604052801561129c57816020015b611289611faf565b8152602001906001900390816112815790505b50905060005b8260070154811015611479578260060160008281526020019081526020016000206040518060600160405290816000820180546112de9061289a565b80601f016020809104026020016040519081016040528092919081815260200182805461130a9061289a565b80156113575780601f1061132c57610100808354040283529160200191611357565b820191906000526020600020905b81548152906001019060200180831161133a57829003601f168201915b505050505081526020016001820160009054906101000a900473ffffffffffffffffffffffffffffffffffffffff1673ffffffffffffffffffffffffffffffffffffffff1673ffffffffffffffffffffffffffffffffffffffff1681526020016002820180546113c69061289a565b80601f01602080910402602001604051908101604052809291908181526020018280546113f29061289a565b801561143f5780601f106114145761010080835404028352916020019161143f565b820191906000526020600020905b81548152906001019060200180831161142257829003601f168201915b50505050508152505082828151811061145b5761145a612e7b565b5b6020026020010181905250808061147190612da1565b9150506112a2565b508092505050919050565b6000806000808473ffffffffffffffffffffffffffffffffffffffff1673ffffffffffffffffffffffffffffffffffffffff16815260200190815260200160002060010160008573ffffffffffffffffffffffffffffffffffffffff1673ffffffffffffffffffffffffffffffffffffffff16815260200190815260200160002060000180546115139061289a565b90501415905092915050565b6000806000808473ffffffffffffffffffffffffffffffffffffffff1673ffffffffffffffffffffffffffffffffffffffff168152602001908152602001600020600001805461156e9061289a565b905014159050919050565b6000806000803373ffffffffffffffffffffffffffffffffffffffff1673ffffffffffffffffffffffffffffffffffffffff16815260200190815260200160002060000180546115c89061289a565b9050146115d8576002905061163c565b6000600160003373ffffffffffffffffffffffffffffffffffffffff1673ffffffffffffffffffffffffffffffffffffffff16815260200190815260200160002060000180546116279061289a565b905014611637576001905061163c565b600090505b90565b60008060003373ffffffffffffffffffffffffffffffffffffffff1673ffffffffffffffffffffffffffffffffffffffff168152602001908152602001600020600001805461168d9061289a565b9050036116cf576040517f08c379a00000000000000000000000000000000000000000000000000000000081526004016116c69061326e565b60405180910390fd5b60008060003373ffffffffffffffffffffffffffffffffffffffff1673ffffffffffffffffffffffffffffffffffffffff16815260200190815260200160002060010160008373ffffffffffffffffffffffffffffffffffffffff1673ffffffffffffffffffffffffffffffffffffffff168152602001908152602001600020600001805461175d9061289a565b90501461179f576040517f08c379a000000000000000000000000000000000000000000000000000000000815260040161179690613300565b60405180910390fd5b600060405180604001604052808481526020013373ffffffffffffffffffffffffffffffffffffffff16815250905080600160008473ffffffffffffffffffffffffffffffffffffffff1673ffffffffffffffffffffffffffffffffffffffff16815260200190815260200160002060008201518160000190816118239190612b4f565b5060208201518160010160006101000a81548173ffffffffffffffffffffffffffffffffffffffff021916908373ffffffffffffffffffffffffffffffffffffffff160217905550905050806000803373ffffffffffffffffffffffffffffffffffffffff1673ffffffffffffffffffffffffffffffffffffffff16815260200190815260200160002060010160008473ffffffffffffffffffffffffffffffffffffffff1673ffffffffffffffffffffffffffffffffffffffff16815260200190815260200160002060008201518160000190816119029190612b4f565b5060208201518160010160006101000a81548173ffffffffffffffffffffffffffffffffffffffff021916908373ffffffffffffffffffffffffffffffffffffffff1602179055509050506000803373ffffffffffffffffffffffffffffffffffffffff1673ffffffffffffffffffffffffffffffffffffffff168152602001908152602001600020600201829080600181540180825580915050600190039060005260206000200160009091909190916101000a81548173ffffffffffffffffffffffffffffffffffffffff021916908373ffffffffffffffffffffffffffffffffffffffff160217905550505050565b606060028054611a039061289a565b80601f0160208091040260200160405190810160405280929190818152602001828054611a2f9061289a565b8015611a7c5780601f10611a5157610100808354040283529160200191611a7c565b820191906000526020600020905b815481529060010190602001808311611a5f57829003601f168201915b5050505050905090565b60028054611a939061289a565b80601f0160208091040260200160405190810160405280929190818152602001828054611abf9061289a565b8015611b0c5780601f10611ae157610100808354040283529160200191611b0c565b820191906000526020600020905b815481529060010190602001808311611aef57829003601f168201915b505050505081565b606060008273ffffffffffffffffffffffffffffffffffffffff1660001b905060006040518060400160405280601081526020017f303132333435363738396162636465660000000000000000000000000000000081525090506000602a67ffffffffffffffff811115611b8b57611b8a612015565b5b6040519080825280601f01601f191660200182016040528015611bbd5781602001600182028036833780820191505090505b5090507f300000000000000000000000000000000000000000000000000000000000000081600081518110611bf557611bf4612e7b565b5b60200101907effffffffffffffffffffffffffffffffffffffffffffffffffffffffffffff1916908160001a9053507f780000000000000000000000000000000000000000000000000000000000000081600181518110611c5957611c58612e7b565b5b60200101907effffffffffffffffffffffffffffffffffffffffffffffffffffffffffffff1916908160001a90535060005b6014811015611e135782600485600c84611ca59190613112565b60208110611cb657611cb5612e7b565b5b1a60f81b7effffffffffffffffffffffffffffffffffffffffffffffffffffffffffffff1916901c60f81c60ff1681518110611cf557611cf4612e7b565b5b602001015160f81c60f81b82600283611d0e9190613320565b6002611d1a9190613112565b81518110611d2b57611d2a612e7b565b5b60200101907effffffffffffffffffffffffffffffffffffffffffffffffffffffffffffff1916908160001a90535082600f60f81b85600c84611d6e9190613112565b60208110611d7f57611d7e612e7b565b5b1a60f81b1660f81c60ff1681518110611d9b57611d9a612e7b565b5b602001015160f81c60f81b82600283611db49190613320565b6003611dc09190613112565b81518110611dd157611dd0612e7b565b5b60200101907effffffffffffffffffffffffffffffffffffffffffffffffffffffffffffff1916908160001a9053508080611e0b90612da1565b915050611c8b565b50809350505050919050565b606060008203611e66576040518060400160405280600181526020017f30000000000000000000000000000000000000000000000000000000000000008152509050611f7a565b600082905060005b60008214611e98578080611e8190612da1565b915050600a82611e919190613391565b9150611e6e565b60008167ffffffffffffffff811115611eb457611eb3612015565b5b6040519080825280601f01601f191660200182016040528015611ee65781602001600182028036833780820191505090505b5090505b60008514611f7357600182611eff91906133c2565b9150600a85611f0e91906133f6565b6030611f1a9190613112565b60f81b818381518110611f3057611f2f612e7b565b5b60200101907effffffffffffffffffffffffffffffffffffffffffffffffffffffffffffff1916908160001a905350600a85611f6c9190613391565b9450611eea565b8093505050505b919050565b604051806040016040528060608152602001600073ffffffffffffffffffffffffffffffffffffffff1681525090565b604051806060016040528060608152602001600073ffffffffffffffffffffffffffffffffffffffff168152602001606081525090565b6000604051905090565b600080fd5b600080fd5b600080fd5b600080fd5b6000601f19601f8301169050919050565b7f4e487b7100000000000000000000000000000000000000000000000000000000600052604160045260246000fd5b61204d82612004565b810181811067ffffffffffffffff8211171561206c5761206b612015565b5b80604052505050565b600061207f611fe6565b905061208b8282612044565b919050565b600067ffffffffffffffff8211156120ab576120aa612015565b5b6120b482612004565b9050602081019050919050565b82818337600083830152505050565b60006120e36120de84612090565b612075565b9050828152602081018484840111156120ff576120fe611fff565b5b61210a8482856120c1565b509392505050565b600082601f83011261212757612126611ffa565b5b81356121378482602086016120d0565b91505092915050565b60006020828403121561215657612155611ff0565b5b600082013567ffffffffffffffff81111561217457612173611ff5565b5b61218084828501612112565b91505092915050565b600080604083850312156121a05761219f611ff0565b5b600083013567ffffffffffffffff8111156121be576121bd611ff5565b5b6121ca85828601612112565b925050602083013567ffffffffffffffff8111156121eb576121ea611ff5565b5b6121f785828601612112565b9150509250929050565b600081519050919050565b600082825260208201905092915050565b6000819050602082019050919050565b600081519050919050565b600082825260208201905092915050565b60005b8381101561226757808201518184015260208101905061224c565b60008484015250505050565b600061227e8261222d565b6122888185612238565b9350612298818560208601612249565b6122a181612004565b840191505092915050565b60006122b88383612273565b905092915050565b6000602082019050919050565b60006122d882612201565b6122e2818561220c565b9350836020820285016122f48561221d565b8060005b85811015612330578484038952815161231185826122ac565b945061231c836122c0565b925060208a019950506001810190506122f8565b50829750879550505050505092915050565b6000602082019050818103600083015261235c81846122cd565b905092915050565b600081519050919050565b600082825260208201905092915050565b6000819050602082019050919050565b600073ffffffffffffffffffffffffffffffffffffffff82169050919050565b60006123bb82612390565b9050919050565b6123cb816123b0565b82525050565b600060408301600083015184820360008601526123ee8282612273565b915050602083015161240360208601826123c2565b508091505092915050565b600061241a83836123d1565b905092915050565b6000602082019050919050565b600061243a82612364565b612444818561236f565b93508360208202850161245685612380565b8060005b858110156124925784840389528151612473858261240e565b945061247e83612422565b925060208a0199505060018101905061245a565b50829750879550505050505092915050565b600060208201905081810360008301526124be818461242f565b905092915050565b6124cf816123b0565b81146124da57600080fd5b50565b6000813590506124ec816124c6565b92915050565b6000806000806080858703121561250c5761250b611ff0565b5b600085013567ffffffffffffffff81111561252a57612529611ff5565b5b61253687828801612112565b945050602085013567ffffffffffffffff81111561255757612556611ff5565b5b61256387828801612112565b9350506040612574878288016124dd565b9250506060612585878288016124dd565b91505092959194509250565b600081519050919050565b600082825260208201905092915050565b6000819050602082019050919050565b600060608301600083015184820360008601526125da8282612273565b91505060208301516125ef60208601826123c2565b50604083015184820360408601526126078282612273565b9150508091505092915050565b600061262083836125bd565b905092915050565b6000602082019050919050565b600061264082612591565b61264a818561259c565b93508360208202850161265c856125ad565b8060005b8581101561269857848403895281516126798582612614565b945061268483612628565b925060208a01995050600181019050612660565b50829750879550505050505092915050565b600060208201905081810360008301526126c48184612635565b905092915050565b600080604083850312156126e3576126e2611ff0565b5b60006126f1858286016124dd565b9250506020612702858286016124dd565b9150509250929050565b60008115159050919050565b6127218161270c565b82525050565b600060208201905061273c6000830184612718565b92915050565b60006020828403121561275857612757611ff0565b5b6000612766848285016124dd565b91505092915050565b6000819050919050565b6127828161276f565b82525050565b600060208201905061279d6000830184612779565b92915050565b600080604083850312156127ba576127b9611ff0565b5b600083013567ffffffffffffffff8111156127d8576127d7611ff5565b5b6127e485828601612112565b92505060206127f5858286016124dd565b9150509250929050565b600082825260208201905092915050565b600061281b8261222d565b61282581856127ff565b9350612835818560208601612249565b61283e81612004565b840191505092915050565b600060208201905081810360008301526128638184612810565b905092915050565b7f4e487b7100000000000000000000000000000000000000000000000000000000600052602260045260246000fd5b600060028204905060018216806128b257607f821691505b6020821081036128c5576128c461286b565b5b50919050565b7f436f6d70616e7920616c72656164792072656769737465726564000000000000600082015250565b6000612901601a836127ff565b915061290c826128cb565b602082019050919050565b60006020820190508181036000830152612930816128f4565b9050919050565b7f436f6d70616e79206e616d652063616e6e6f7420626520656d70747900000000600082015250565b600061296d601c836127ff565b915061297882612937565b602082019050919050565b6000602082019050818103600083015261299c81612960565b9050919050565b60008190508160005260206000209050919050565b60006020601f8301049050919050565b600082821b905092915050565b600060088302612a057fffffffffffffffffffffffffffffffffffffffffffffffffffffffffffffffff826129c8565b612a0f86836129c8565b95508019841693508086168417925050509392505050565b6000819050919050565b6000612a4c612a47612a428461276f565b612a27565b61276f565b9050919050565b6000819050919050565b612a6683612a31565b612a7a612a7282612a53565b8484546129d5565b825550505050565b600090565b612a8f612a82565b612a9a818484612a5d565b505050565b5b81811015612abe57612ab3600082612a87565b600181019050612aa0565b5050565b601f821115612b0357612ad4816129a3565b612add846129b8565b81016020851015612aec578190505b612b00612af8856129b8565b830182612a9f565b50505b505050565b600082821c905092915050565b6000612b2660001984600802612b08565b1980831691505092915050565b6000612b3f8383612b15565b9150826002028217905092915050565b612b588261222d565b67ffffffffffffffff811115612b7157612b70612015565b5b612b7b825461289a565b612b86828285612ac2565b600060209050601f831160018114612bb95760008415612ba7578287015190505b612bb18582612b33565b865550612c19565b601f198416612bc7866129a3565b60005b82811015612bef57848901518255600182019150602085019450602081019050612bca565b86831015612c0c5784890151612c08601f891682612b15565b8355505b6001600288020188555050505b505050505050565b7f496e76616c696420687562206164647265737300000000000000000000000000600082015250565b6000612c576013836127ff565b9150612c6282612c21565b602082019050919050565b60006020820190508181036000830152612c8681612c4a565b9050919050565b600081905092915050565b6000612ca38261222d565b612cad8185612c8d565b9350612cbd818560208601612249565b80840191505092915050565b6000612cd58284612c98565b915081905092915050565b7f48756220616e642070726f647563742073686f756c642062656c6f6e6720746f60008201527f207468652073616d6520636f6d70616e79000000000000000000000000000000602082015250565b6000612d3c6031836127ff565b9150612d4782612ce0565b604082019050919050565b60006020820190508181036000830152612d6b81612d2f565b9050919050565b7f4e487b7100000000000000000000000000000000000000000000000000000000600052601160045260246000fd5b6000612dac8261276f565b91507fffffffffffffffffffffffffffffffffffffffffffffffffffffffffffffffff8203612dde57612ddd612d72565b5b600182019050919050565b7f4f6e6c79207265676973746572656420636f6d70616e6965732063616e20616360008201527f636573732074686569722070726f647563747300000000000000000000000000602082015250565b6000612e456033836127ff565b9150612e5082612de9565b604082019050919050565b60006020820190508181036000830152612e7481612e38565b9050919050565b7f4e487b7100000000000000000000000000000000000000000000000000000000600052603260045260246000fd5b60008154612eb78161289a565b612ec18186612c8d565b94506001821660008114612edc5760018114612ef157612f24565b60ff1983168652811515820286019350612f24565b612efa856129a3565b60005b83811015612f1c57815481890152600182019150602081019050612efd565b838801955050505b50505092915050565b7f202d200000000000000000000000000000000000000000000000000000000000600082015250565b6000612f63600383612c8d565b9150612f6e82612f2d565b600382019050919050565b6000612f858285612eaa565b9150612f9082612f56565b9150612f9c8284612eaa565b91508190509392505050565b7f4f6e6c79207265676973746572656420636f6d70616e6965732063616e20616460008201527f642061206e65772070726f647563740000000000000000000000000000000000602082015250565b6000613004602f836127ff565b915061300f82612fa8565b604082019050919050565b6000602082019050818103600083015261303381612ff7565b9050919050565b7f4f726967696e206973206e6f7420612076616c69642068756200000000000000600082015250565b60006130706019836127ff565b915061307b8261303a565b602082019050919050565b6000602082019050818103600083015261309f81613063565b9050919050565b7f44657374696e6174696f6e206973206e6f7420612076616c6964206875620000600082015250565b60006130dc601e836127ff565b91506130e7826130a6565b602082019050919050565b6000602082019050818103600083015261310b816130cf565b9050919050565b600061311d8261276f565b91506131288361276f565b92508282019050808211156131405761313f612d72565b5b92915050565b60006131528285612c98565b915061315e8284612c98565b91508190509392505050565b7f4f6e6c79207265676973746572656420636f6d70616e6965732063616e20616360008201527f636573732070726f647563742073746174757300000000000000000000000000602082015250565b60006131c66033836127ff565b91506131d18261316a565b604082019050919050565b600060208201905081810360008301526131f5816131b9565b9050919050565b7f4f6e6c79207265676973746572656420636f6d70616e6965732063616e20726560008201527f6769737465722061204875620000000000000000000000000000000000000000602082015250565b6000613258602c836127ff565b9150613263826131fc565b604082019050919050565b600060208201905081810360008301526132878161324b565b9050919050565b7f48756220616c7265616479207265676973746572656420756e6465722074686960008201527f7320636f6d70616e790000000000000000000000000000000000000000000000602082015250565b60006132ea6029836127ff565b91506132f58261328e565b604082019050919050565b60006020820190508181036000830152613319816132dd565b9050919050565b600061332b8261276f565b91506133368361276f565b92508282026133448161276f565b9150828204841483151761335b5761335a612d72565b5b5092915050565b7f4e487b7100000000000000000000000000000000000000000000000000000000600052601260045260246000fd5b600061339c8261276f565b91506133a78361276f565b9250826133b7576133b6613362565b5b828204905092915050565b60006133cd8261276f565b91506133d88361276f565b92508282039050818111156133f0576133ef612d72565b5b92915050565b60006134018261276f565b915061340c8361276f565b92508261341c5761341b613362565b5b82820690509291505056fea2646970667358221220b1c47e68cdf029c011ad442188fc72a1777b0ee8ab4aadfd2968931e9c02458464736f6c63430008110033",
  "linkReferences": {},
  "deployedLinkReferences": {}
}